{
  "_format": "hh-sol-artifact-1",
  "contractName": "PartyVote",
  "sourceName": "contracts/PartyVote.sol",
  "abi": [
    {
      "inputs": [
        {
          "internalType": "string",
          "name": "name",
          "type": "string"
        },
        {
          "internalType": "address",
          "name": "tokenAddress",
          "type": "address"
        }
      ],
      "stateMutability": "nonpayable",
      "type": "constructor"
    },
    {
      "inputs": [
        {
          "internalType": "address",
          "name": "owner",
          "type": "address"
        }
      ],
      "name": "OwnableInvalidOwner",
      "type": "error"
    },
    {
      "inputs": [
        {
          "internalType": "address",
          "name": "account",
          "type": "address"
        }
      ],
      "name": "OwnableUnauthorizedAccount",
      "type": "error"
    },
    {
      "anonymous": false,
      "inputs": [
        {
          "indexed": true,
          "internalType": "address",
          "name": "previousOwner",
          "type": "address"
        },
        {
          "indexed": true,
          "internalType": "address",
          "name": "newOwner",
          "type": "address"
        }
      ],
      "name": "OwnershipTransferred",
      "type": "event"
    },
    {
      "inputs": [
        {
          "internalType": "string",
          "name": "name",
          "type": "string"
        }
      ],
      "name": "addParty",
      "outputs": [],
      "stateMutability": "nonpayable",
      "type": "function"
    },
    {
      "inputs": [],
      "name": "getParties",
      "outputs": [
        {
          "components": [
            {
              "internalType": "string",
              "name": "name",
              "type": "string"
            },
            {
              "internalType": "uint256",
              "name": "count",
              "type": "uint256"
            }
          ],
          "internalType": "struct PartyVote.Party[]",
          "name": "",
          "type": "tuple[]"
        }
      ],
      "stateMutability": "view",
      "type": "function"
    },
    {
      "inputs": [
        {
          "internalType": "address",
          "name": "voter",
          "type": "address"
        }
      ],
      "name": "getVotes",
      "outputs": [
        {
          "components": [
            {
              "components": [
                {
                  "internalType": "string",
                  "name": "name",
                  "type": "string"
                },
                {
                  "internalType": "uint256",
                  "name": "count",
                  "type": "uint256"
                }
              ],
              "internalType": "struct PartyVote.Party",
              "name": "party",
              "type": "tuple"
            },
            {
              "internalType": "bool",
              "name": "hasVoted",
              "type": "bool"
            },
            {
              "internalType": "uint256",
              "name": "time",
              "type": "uint256"
            }
          ],
          "internalType": "struct PartyVote.Votes",
          "name": "",
          "type": "tuple"
        }
      ],
      "stateMutability": "view",
      "type": "function"
    },
    {
      "inputs": [],
      "name": "owner",
      "outputs": [
        {
          "internalType": "address",
          "name": "",
          "type": "address"
        }
      ],
      "stateMutability": "view",
      "type": "function"
    },
    {
      "inputs": [
        {
          "internalType": "uint256",
          "name": "",
          "type": "uint256"
        }
      ],
      "name": "parties",
      "outputs": [
        {
          "internalType": "string",
          "name": "name",
          "type": "string"
        },
        {
          "internalType": "uint256",
          "name": "count",
          "type": "uint256"
        }
      ],
      "stateMutability": "view",
      "type": "function"
    },
    {
      "inputs": [],
      "name": "renounceOwnership",
      "outputs": [],
      "stateMutability": "nonpayable",
      "type": "function"
    },
    {
      "inputs": [],
      "name": "token",
      "outputs": [
        {
          "internalType": "contract ITokenContract",
          "name": "",
          "type": "address"
        }
      ],
      "stateMutability": "view",
      "type": "function"
    },
    {
      "inputs": [],
      "name": "totalVoteUsed",
      "outputs": [
        {
          "internalType": "uint256",
          "name": "",
          "type": "uint256"
        }
      ],
      "stateMutability": "view",
      "type": "function"
    },
    {
      "inputs": [
        {
          "internalType": "address",
          "name": "newOwner",
          "type": "address"
        }
      ],
      "name": "transferOwnership",
      "outputs": [],
      "stateMutability": "nonpayable",
      "type": "function"
    },
    {
      "inputs": [
        {
          "internalType": "string",
          "name": "name",
          "type": "string"
        }
      ],
      "name": "vote",
      "outputs": [],
      "stateMutability": "nonpayable",
      "type": "function"
    },
    {
      "inputs": [
        {
          "internalType": "address",
          "name": "",
          "type": "address"
        }
      ],
      "name": "votes",
      "outputs": [
        {
          "components": [
            {
              "internalType": "string",
              "name": "name",
              "type": "string"
            },
            {
              "internalType": "uint256",
              "name": "count",
              "type": "uint256"
            }
          ],
          "internalType": "struct PartyVote.Party",
          "name": "party",
          "type": "tuple"
        },
        {
          "internalType": "bool",
          "name": "hasVoted",
          "type": "bool"
        },
        {
          "internalType": "uint256",
          "name": "time",
          "type": "uint256"
        }
      ],
      "stateMutability": "view",
      "type": "function"
    }
  ],
  "bytecode": "0x60806040523480156200001157600080fd5b50604051620021a3380380620021a3833981810160405281019062000037919062000429565b33600073ffffffffffffffffffffffffffffffffffffffff168173ffffffffffffffffffffffffffffffffffffffff1603620000ad5760006040517f1e4fbdf7000000000000000000000000000000000000000000000000000000008152600401620000a49190620004a0565b60405180910390fd5b620000be816200016d60201b60201c565b5080600160006101000a81548173ffffffffffffffffffffffffffffffffffffffff021916908373ffffffffffffffffffffffffffffffffffffffff1602179055506002604051806040016040528084815260200160008152509080600181540180825580915050600190039060005260206000209060020201600090919091909150600082015181600001908162000158919062000708565b506020820151816001015550505050620007ef565b60008060009054906101000a900473ffffffffffffffffffffffffffffffffffffffff169050816000806101000a81548173ffffffffffffffffffffffffffffffffffffffff021916908373ffffffffffffffffffffffffffffffffffffffff1602179055508173ffffffffffffffffffffffffffffffffffffffff168173ffffffffffffffffffffffffffffffffffffffff167f8be0079c531659141344cd1fd0a4f28419497f9722a3daafe3b4186f6b6457e060405160405180910390a35050565b6000604051905090565b600080fd5b600080fd5b600080fd5b600080fd5b6000601f19601f8301169050919050565b7f4e487b7100000000000000000000000000000000000000000000000000000000600052604160045260246000fd5b6200029a826200024f565b810181811067ffffffffffffffff82111715620002bc57620002bb62000260565b5b80604052505050565b6000620002d162000231565b9050620002df82826200028f565b919050565b600067ffffffffffffffff82111562000302576200030162000260565b5b6200030d826200024f565b9050602081019050919050565b60005b838110156200033a5780820151818401526020810190506200031d565b60008484015250505050565b60006200035d6200035784620002e4565b620002c5565b9050828152602081018484840111156200037c576200037b6200024a565b5b620003898482856200031a565b509392505050565b600082601f830112620003a957620003a862000245565b5b8151620003bb84826020860162000346565b91505092915050565b600073ffffffffffffffffffffffffffffffffffffffff82169050919050565b6000620003f182620003c4565b9050919050565b6200040381620003e4565b81146200040f57600080fd5b50565b6000815190506200042381620003f8565b92915050565b600080604083850312156200044357620004426200023b565b5b600083015167ffffffffffffffff81111562000464576200046362000240565b5b620004728582860162000391565b9250506020620004858582860162000412565b9150509250929050565b6200049a81620003e4565b82525050565b6000602082019050620004b760008301846200048f565b92915050565b600081519050919050565b7f4e487b7100000000000000000000000000000000000000000000000000000000600052602260045260246000fd5b600060028204905060018216806200051057607f821691505b602082108103620005265762000525620004c8565b5b50919050565b60008190508160005260206000209050919050565b60006020601f8301049050919050565b600082821b905092915050565b600060088302620005907fffffffffffffffffffffffffffffffffffffffffffffffffffffffffffffffff8262000551565b6200059c868362000551565b95508019841693508086168417925050509392505050565b6000819050919050565b6000819050919050565b6000620005e9620005e3620005dd84620005b4565b620005be565b620005b4565b9050919050565b6000819050919050565b6200060583620005c8565b6200061d6200061482620005f0565b8484546200055e565b825550505050565b600090565b6200063462000625565b62000641818484620005fa565b505050565b5b8181101562000669576200065d6000826200062a565b60018101905062000647565b5050565b601f821115620006b85762000682816200052c565b6200068d8462000541565b810160208510156200069d578190505b620006b5620006ac8562000541565b83018262000646565b50505b505050565b600082821c905092915050565b6000620006dd60001984600802620006bd565b1980831691505092915050565b6000620006f88383620006ca565b9150826002028217905092915050565b6200071382620004bd565b67ffffffffffffffff8111156200072f576200072e62000260565b5b6200073b8254620004f7565b620007488282856200066d565b600060209050601f8311600181146200078057600084156200076b578287015190505b620007778582620006ea565b865550620007e7565b601f19841662000790866200052c565b60005b82811015620007ba5784890151825560018201915060208501945060208101905062000793565b86831015620007da5784890151620007d6601f891682620006ca565b8355505b6001600288020188555050505b505050505050565b6119a480620007ff6000396000f3fe608060405234801561001057600080fd5b50600436106100a95760003560e01c80639ab24eb0116100715780639ab24eb014610141578063a8311aa814610171578063d8bff5a51461018f578063f2fde38b146101c1578063fc0c546a146101dd578063fc36e15b146101fb576100a9565b80632fcd1612146100ae5780635df3e271146100cc57806370651a18146100e8578063715018a6146101195780638da5cb5b14610123575b600080fd5b6100b6610217565b6040516100c39190610cd4565b60405180910390f35b6100e660048036038101906100e19190610e49565b61021d565b005b61010260048036038101906100fd9190610ebe565b610291565b604051610110929190610f6a565b60405180910390f35b61012161034d565b005b61012b610361565b6040516101389190610fdb565b60405180910390f35b61015b60048036038101906101569190611022565b61038a565b6040516101689190611150565b60405180910390f35b6101796104b8565b6040516101869190611234565b60405180910390f35b6101a960048036038101906101a49190611022565b6105b3565b6040516101b8939291906112a2565b60405180910390f35b6101db60048036038101906101d69190611022565b610690565b005b6101e5610716565b6040516101f2919061133f565b60405180910390f35b61021560048036038101906102109190610e49565b61073c565b005b60045481565b610225610b25565b600060405180604001604052808381526020016000815250905060028190806001815401808255809150506001900390600052602060002090600202016000909190919091506000820151816000019081610280919061155c565b506020820151816001015550505050565b600281815481106102a157600080fd5b90600052602060002090600202016000915090508060000180546102c490611389565b80601f01602080910402602001604051908101604052809291908181526020018280546102f090611389565b801561033d5780601f106103125761010080835404028352916020019161033d565b820191906000526020600020905b81548152906001019060200180831161032057829003601f168201915b5050505050908060010154905082565b610355610b25565b61035f6000610bac565b565b60008060009054906101000a900473ffffffffffffffffffffffffffffffffffffffff16905090565b610392610c78565b600360008373ffffffffffffffffffffffffffffffffffffffff1673ffffffffffffffffffffffffffffffffffffffff168152602001908152602001600020604051806060016040529081600082016040518060400160405290816000820180546103fc90611389565b80601f016020809104026020016040519081016040528092919081815260200182805461042890611389565b80156104755780601f1061044a57610100808354040283529160200191610475565b820191906000526020600020905b81548152906001019060200180831161045857829003601f168201915b5050505050815260200160018201548152505081526020016002820160009054906101000a900460ff161515151581526020016003820154815250509050919050565b60606002805480602002602001604051908101604052809291908181526020016000905b828210156105aa578382906000526020600020906002020160405180604001604052908160008201805461050f90611389565b80601f016020809104026020016040519081016040528092919081815260200182805461053b90611389565b80156105885780601f1061055d57610100808354040283529160200191610588565b820191906000526020600020905b81548152906001019060200180831161056b57829003601f168201915b50505050508152602001600182015481525050815260200190600101906104dc565b50505050905090565b6003602052806000526040600020600091509050806000016040518060400160405290816000820180546105e690611389565b80601f016020809104026020016040519081016040528092919081815260200182805461061290611389565b801561065f5780601f106106345761010080835404028352916020019161065f565b820191906000526020600020905b81548152906001019060200180831161064257829003601f168201915b50505050508152602001600182015481525050908060020160009054906101000a900460ff16908060030154905083565b610698610b25565b600073ffffffffffffffffffffffffffffffffffffffff168173ffffffffffffffffffffffffffffffffffffffff160361070a5760006040517f1e4fbdf70000000000000000000000000000000000000000000000000000000081526004016107019190610fdb565b60405180910390fd5b61071381610bac565b50565b600160009054906101000a900473ffffffffffffffffffffffffffffffffffffffff1681565b60018060009054906101000a900473ffffffffffffffffffffffffffffffffffffffff1673ffffffffffffffffffffffffffffffffffffffff166370a08231336040518263ffffffff1660e01b81526004016107989190610fdb565b602060405180830381865afa1580156107b5573d6000803e3d6000fd5b505050506040513d601f19601f820116820180604052508101906107d99190611643565b101561081a576040517f08c379a0000000000000000000000000000000000000000000000000000000008152600401610811906116e2565b60405180910390fd5b600360003373ffffffffffffffffffffffffffffffffffffffff1673ffffffffffffffffffffffffffffffffffffffff16815260200190815260200160002060020160009054906101000a900460ff16156108aa576040517f08c379a00000000000000000000000000000000000000000000000000000000081526004016108a19061174e565b60405180910390fd5b60005b600280549050811015610ae6578180519060200120600282815481106108d6576108d561176e565b5b90600052602060002090600202016000016040516108f49190611840565b604051809103902003610ad9576001600282815481106109175761091661176e565b5b906000526020600020906002020160010160008282546109379190611886565b9250508190555060405180606001604052806002838154811061095d5761095c61176e565b5b906000526020600020906002020160405180604001604052908160008201805461098690611389565b80601f01602080910402602001604051908101604052809291908181526020018280546109b290611389565b80156109ff5780601f106109d4576101008083540402835291602001916109ff565b820191906000526020600020905b8154815290600101906020018083116109e257829003601f168201915b50505050508152602001600182015481525050815260200160011515815260200142815250600360003373ffffffffffffffffffffffffffffffffffffffff1673ffffffffffffffffffffffffffffffffffffffff1681526020019081526020016000206000820151816000016000820151816000019081610a81919061155c565b5060208201518160010155505060208201518160020160006101000a81548160ff0219169083151502179055506040820151816003015590505060046000815480929190610ace906118ba565b919050555050610b22565b80806001019150506108ad565b506040517f08c379a0000000000000000000000000000000000000000000000000000000008152600401610b199061194e565b60405180910390fd5b50565b610b2d610c70565b73ffffffffffffffffffffffffffffffffffffffff16610b4b610361565b73ffffffffffffffffffffffffffffffffffffffff1614610baa57610b6e610c70565b6040517f118cdaa7000000000000000000000000000000000000000000000000000000008152600401610ba19190610fdb565b60405180910390fd5b565b60008060009054906101000a900473ffffffffffffffffffffffffffffffffffffffff169050816000806101000a81548173ffffffffffffffffffffffffffffffffffffffff021916908373ffffffffffffffffffffffffffffffffffffffff1602179055508173ffffffffffffffffffffffffffffffffffffffff168173ffffffffffffffffffffffffffffffffffffffff167f8be0079c531659141344cd1fd0a4f28419497f9722a3daafe3b4186f6b6457e060405160405180910390a35050565b600033905090565b6040518060600160405280610c8b610ca1565b8152602001600015158152602001600081525090565b604051806040016040528060608152602001600081525090565b6000819050919050565b610cce81610cbb565b82525050565b6000602082019050610ce96000830184610cc5565b92915050565b6000604051905090565b600080fd5b600080fd5b600080fd5b600080fd5b6000601f19601f8301169050919050565b7f4e487b7100000000000000000000000000000000000000000000000000000000600052604160045260246000fd5b610d5682610d0d565b810181811067ffffffffffffffff82111715610d7557610d74610d1e565b5b80604052505050565b6000610d88610cef565b9050610d948282610d4d565b919050565b600067ffffffffffffffff821115610db457610db3610d1e565b5b610dbd82610d0d565b9050602081019050919050565b82818337600083830152505050565b6000610dec610de784610d99565b610d7e565b905082815260208101848484011115610e0857610e07610d08565b5b610e13848285610dca565b509392505050565b600082601f830112610e3057610e2f610d03565b5b8135610e40848260208601610dd9565b91505092915050565b600060208284031215610e5f57610e5e610cf9565b5b600082013567ffffffffffffffff811115610e7d57610e7c610cfe565b5b610e8984828501610e1b565b91505092915050565b610e9b81610cbb565b8114610ea657600080fd5b50565b600081359050610eb881610e92565b92915050565b600060208284031215610ed457610ed3610cf9565b5b6000610ee284828501610ea9565b91505092915050565b600081519050919050565b600082825260208201905092915050565b60005b83811015610f25578082015181840152602081019050610f0a565b60008484015250505050565b6000610f3c82610eeb565b610f468185610ef6565b9350610f56818560208601610f07565b610f5f81610d0d565b840191505092915050565b60006040820190508181036000830152610f848185610f31565b9050610f936020830184610cc5565b9392505050565b600073ffffffffffffffffffffffffffffffffffffffff82169050919050565b6000610fc582610f9a565b9050919050565b610fd581610fba565b82525050565b6000602082019050610ff06000830184610fcc565b92915050565b610fff81610fba565b811461100a57600080fd5b50565b60008135905061101c81610ff6565b92915050565b60006020828403121561103857611037610cf9565b5b60006110468482850161100d565b91505092915050565b600082825260208201905092915050565b600061106b82610eeb565b611075818561104f565b9350611085818560208601610f07565b61108e81610d0d565b840191505092915050565b6110a281610cbb565b82525050565b600060408301600083015184820360008601526110c58282611060565b91505060208301516110da6020860182611099565b508091505092915050565b60008115159050919050565b6110fa816110e5565b82525050565b6000606083016000830151848203600086015261111d82826110a8565b915050602083015161113260208601826110f1565b5060408301516111456040860182611099565b508091505092915050565b6000602082019050818103600083015261116a8184611100565b905092915050565b600081519050919050565b600082825260208201905092915050565b6000819050602082019050919050565b60006111aa83836110a8565b905092915050565b6000602082019050919050565b60006111ca82611172565b6111d4818561117d565b9350836020820285016111e68561118e565b8060005b858110156112225784840389528151611203858261119e565b945061120e836111b2565b925060208a019950506001810190506111ea565b50829750879550505050505092915050565b6000602082019050818103600083015261124e81846111bf565b905092915050565b600060408301600083015184820360008601526112738282611060565b91505060208301516112886020860182611099565b508091505092915050565b61129c816110e5565b82525050565b600060608201905081810360008301526112bc8186611256565b90506112cb6020830185611293565b6112d86040830184610cc5565b949350505050565b6000819050919050565b60006113056113006112fb84610f9a565b6112e0565b610f9a565b9050919050565b6000611317826112ea565b9050919050565b60006113298261130c565b9050919050565b6113398161131e565b82525050565b60006020820190506113546000830184611330565b92915050565b7f4e487b7100000000000000000000000000000000000000000000000000000000600052602260045260246000fd5b600060028204905060018216806113a157607f821691505b6020821081036113b4576113b361135a565b5b50919050565b60008190508160005260206000209050919050565b60006020601f8301049050919050565b600082821b905092915050565b60006008830261141c7fffffffffffffffffffffffffffffffffffffffffffffffffffffffffffffffff826113df565b61142686836113df565b95508019841693508086168417925050509392505050565b600061145961145461144f84610cbb565b6112e0565b610cbb565b9050919050565b6000819050919050565b6114738361143e565b61148761147f82611460565b8484546113ec565b825550505050565b600090565b61149c61148f565b6114a781848461146a565b505050565b5b818110156114cb576114c0600082611494565b6001810190506114ad565b5050565b601f821115611510576114e1816113ba565b6114ea846113cf565b810160208510156114f9578190505b61150d611505856113cf565b8301826114ac565b50505b505050565b600082821c905092915050565b600061153360001984600802611515565b1980831691505092915050565b600061154c8383611522565b9150826002028217905092915050565b61156582610eeb565b67ffffffffffffffff81111561157e5761157d610d1e565b5b6115888254611389565b6115938282856114cf565b600060209050601f8311600181146115c657600084156115b4578287015190505b6115be8582611540565b865550611626565b601f1984166115d4866113ba565b60005b828110156115fc578489015182556001820191506020850194506020810190506115d7565b868310156116195784890151611615601f891682611522565b8355505b6001600288020188555050505b505050505050565b60008151905061163d81610e92565b92915050565b60006020828403121561165957611658610cf9565b5b60006116678482850161162e565b91505092915050565b7f596f7520646f6e277420686176652074686520746f6b656e20746f20766f746560008201527f2100000000000000000000000000000000000000000000000000000000000000602082015250565b60006116cc602183610ef6565b91506116d782611670565b604082019050919050565b600060208201905081810360008301526116fb816116bf565b9050919050565b7f596f75206861766520616c726561647920766f74656400000000000000000000600082015250565b6000611738601683610ef6565b915061174382611702565b602082019050919050565b600060208201905081810360008301526117678161172b565b9050919050565b7f4e487b7100000000000000000000000000000000000000000000000000000000600052603260045260246000fd5b600081905092915050565b60008190508160005260206000209050919050565b600081546117ca81611389565b6117d4818661179d565b945060018216600081146117ef576001811461180457611837565b60ff1983168652811515820286019350611837565b61180d856117a8565b60005b8381101561182f57815481890152600182019150602081019050611810565b838801955050505b50505092915050565b600061184c82846117bd565b915081905092915050565b7f4e487b7100000000000000000000000000000000000000000000000000000000600052601160045260246000fd5b600061189182610cbb565b915061189c83610cbb565b92508282019050808211156118b4576118b3611857565b5b92915050565b60006118c582610cbb565b91507fffffffffffffffffffffffffffffffffffffffffffffffffffffffffffffffff82036118f7576118f6611857565b5b600182019050919050565b7f5061727479206e6f7420666f756e640000000000000000000000000000000000600082015250565b6000611938600f83610ef6565b915061194382611902565b602082019050919050565b600060208201905081810360008301526119678161192b565b905091905056fea2646970667358221220edf158115c855af693e409862af0432b91ad609152b9230121cc620b11489fa264736f6c63430008180033",
  "linkReferences": {},
  "deployedLinkReferences": {}
}